:1000000012C022C020C01FC01EC01DC01CC01BC00B
:100010001AC019C018C017C016C015C014C013C02C
:1000200012C011C010C011241FBECFE5D4E0DEBF46
:10003000CDBF10E0A0E6B0E001C01D92A236B1072E
:10004000E1F73AD07DC0DCCF1F920F920FB60F922E
:1000500011248F9381E0809361008F910F900FBEE8
:100060000F901F90189581B3806C81BB81B3837F03
:1000700081BB8C9887B3866087BB08958FB5826AF1
:100080008FBD8EB589618EBD8CEC99E097BD86BD24
:100090008BEE93E09BBD8ABD8FEE96E099BD88BD47
:1000A00008958BB780648BBF85B7816085BF8BB7A0
:1000B00080648BBF78940895D6DFE0DFF2DF809113
:1000C00061008130E1F7849B05C012BE83B7826076
:1000D00083BF0CC083B78D7F83BF82B790E023E0DE
:1000E000880F991F2A95E1F79BBD8ABD1092610088
:1000F000E6CFBC0184E294EF0FD06150704070BD38
:1001000069B98AB188698AB980B5866880BD089561
:100110005D9BFECF8CB90895AA1BBB1B51E107C0A4
:10012000AA1FBB1FA617B70710F0A61BB70B881F87
:10013000991F5A95A9F780959095BC01CD01089516
:04014000F894FFCF61
:00000001FF
